:100000000C9488030C94A5030C94A5030C94A503ED
:100010000C9448060C94A5030C94A5030C94760646
:100020000C94A5030C94A5030C94A5030C94A503B0
:100030000C94A5030C9447050C94A5030C94A503FC
:100040000C94A5030C94A5030C94A5030C94A50390
:100050000C94A5030D0A000101010000000000003E
:1000600000006C613A206C6F6720616C6C20636DDE
:1000700064732000646C3A2064756D7020706C6944
:1000800070202020200064703A2064756D7020700C
:10009000726F746F2020200064613A2064756D7067
:1000A0002041525020202020200064693A206475AD
:1000B0006D702049502020202020200064653A20C7
:1000C00064756D7020455448202020202000646411
:1000D0003A2064756D7020646972732020202000BE
:1000E00066703A2066696C74657220504C495020E5
:1000F000200066653A2066696C7465722045544834
:100100002020200066633A2045544820666C6F77B3
:100110002063746C200066643A2066756C6C206401
:1001200075706C65782020004F66666C696E65207E
:100130002D3E2044524F500046696C746572202D4C
:100140003E2044524F500053656E742100706B7412
:1001500020616C72656164792077616974696E678A
:10016000210020706B74732077616974696E672158
:10017000006D61633F2000747970653F20006E6FF1
:1001800020626F6F74703F20006263617374206E31
:100190006F207564703F2000626361737420697022
:1001A0003F2000657468287278293A2000657272D1
:1001B0006F723D00666C6F77206F66662E206E75DD
:1001C0006D5F706B743D00666C6F77206F6E2E20D4
:1001D0006E756D5F706B743D006574683A206C6974
:1001E0006E6B20646F776E0D0A006574683A206C40
:1001F000696E6B2075700D0A00696F3A20002C61E2
:10020000636B3D002C7365713D002C666C616773F8
:100210003D005B5443503A005B5544503A00424F16
:100220004F54504300424F4F545053004654506473
:1002300061740046545063746C002C554450200087
:100240002C54435020002C49434D50005B495034FE
:100250003A005245504C0052455120005B415250EB
:100260003A004F66666C696E65202D3E2044524F01
:10027000502100747970653F200056455253494F14
:100280004E204D49534D415443482120706C6561C7
:10029000736520757064617465206669726D77613D
:1002A00072652E00207665723D006F6E6C696E651A
:1002B0003A206D61633D006F66666C696E65004152
:1002C00052503A20706B74213D737263206D6163EC
:1002D00021004152503A20747970653F007062707D
:1002E000287278293A2000657468285458293A20E1
:1002F000007062703A206C696E6B20646F776E0DCF
:100300000A007062703A206C696E6B2075700D0A7D
:10031000006279650D0A004855483F0D0A003F3FCD
:100320003F0D0A004552524F520D0A0053594E5488
:1003300041580D0A004F4B0D0A0052455345540DCC
:100340000A003E2000636F6D6D616E64206D6F6406
:10035000652E20656E74657220273F2720666F72B8
:100360002068656C702E0D0A00712020202020204E
:1003700020207175697420636F6D6D616E64206DEE
:100380006F64650D0A722020202020202020736FCA
:100390006674207265736574206465766963650DA3
:1003A0000A7620202020202020207072696E742080
:1003B000706C6970626F782076657273696F6E0D0C
:1003C0000A7020202020202020207072696E742066
:1003D000706172616D65746572730D0A70732020AF
:1003E00020202020207361766520706172616D6528
:1003F0007465727320746F20454550524F4D0D0A3D
:10040000706C202020202020206C6F61642070619F
:1004100072616D65746572732066726F6D204545FB
:1004200050524F4D0D0A736420202020202020645C
:10043000756D7020737461746973746963730D0AE8
:100440007372202020202020207265736574207331
:100450007461746973746963730D0A0D0A666420AC
:100460005B6F6E5D2020656E61626C652066756CE9
:100470006C206475706C6578206D6F64650D0A661C
:1004800063205B6F6E5D2020656E61626C65206627
:100490006C6F7720636F6E74726F6C20666F722062
:1004A000455448207061636B6574730D0A66702053
:1004B0005B6F6E5D2020656E61626C652066696CA5
:1004C000746572696E67206F6620504C49502070C9
:1004D00061636B6574730D0A6665205B6F6E5D20EA
:1004E00020656E61626C652066696C746572696E08
:1004F00067206F6620455448207061636B65747394
:100500000D0A0D0A6464203C76616C3E2073656CB4
:1005100065637420646961676E6F736973206469D1
:1005200072656374696F6E732E20616464207661F6
:100530006C7565733A0D0A20202020202020202091
:100540005B313D706C6970287278292C323D65747E
:1005500068287278292C343D706C69702874782969
:100560002C383D657468287478295D0D0A6465200F
:100570005B6F6E5D2020746F67676C652064756DBE
:10058000702065746865726E6574207061636B6558
:1005900074730D0A6469205B6F6E5D2020746F6751
:1005A000676C652064756D7020495020636F6E74B0
:1005B000656E74730D0A6461205B6F6E5D2020743C
:1005C0006F67676C652064756D70204152502063C1
:1005D0006F6E74656E74730D0A6470205B6F6E5D70
:1005E0002020746F67676C652064756D70205443BC
:1005F000502F55445020636F6E74656E74730D0AEE
:10060000646C205B6F6E5D2020746F67676C652083
:1006100064756D7020504C495020696E666F0D0AEC
:100620000D0A6C61205B6F6E5D20206C6F6720612E
:100630006C6C20504C495020636F6D6D616E64731B
:100640000D0A00302E352032303133313132390D40
:100650000A006475706C6578002068616C66200023
:100660002066756C6C2000656E6332386A36303AED
:10067000207265762000656E6332386A36303A2023
:100680004552524F522053455454494E47205550DD
:1006900021210D0A006279206C616C6C6166612019
:1006A00028687474703A2F2F7777772E6C616C6C92
:1006B0006166612E64652F626C6F67290D0A0D0AF1
:1006C000000D0A57656C636F6D6520746F20706C48
:1006D0006970626F7820302E3520323031333131FD
:1006E00032390D0A00747820007278200020202012
:1006F000636E7420206279746573202020206572F7
:1007000072202064726F702066696C740D0A00009C
:1007100011241FBECFE5D8E0DEBFCDBF11E0A0E6BB
:10072000B0E0E4ECFFE202C005900D92A438B107FE
:10073000D9F713E0A4E8B1E001C01D92A63DB107CE
:10074000E1F70E9430160C9474170C940000089581
:100750008A3010F4805D0895895C0895FB01982F1C
:1007600092959F709A3010F4905D01C0995C9083CF
:100770008F708A3010F4805D01C0895C8183089598
:10078000FF920F931F93F82E8B01892F0E94AE03C7
:100790000E5F1F4F8F2DB8010E94AE031F910F9166
:1007A000FF900895CF92DF92EF92FF920F931F93E5
:1007B0006B017C018A01C701AA27BB27BA010E94ED
:1007C000C0030C5F1F4FC601B8010E94C0031F91F8
:1007D0000F91FF90EF90DF90CF900895282FFB01AD
:1007E00064E60E94B217392F822F0E94B217805DF3
:1007F0008083832F6AE00E94B217805D8183832FFC
:100800000E94B217905D92830895AF92BF92CF92EB
:10081000DF92EF92FF920F931F93CF93DF936B01C1
:100820007C01EA01B22E822F90E00197C80FD91FF8
:10083000021708F4219610E09EE2A92E1AC01017A4
:1008400011F4A8822197B601C7012AE030E040E008
:1008500050E00E94BE17605D68832197B601C70112
:100860002AE030E040E050E00E94BE1769017A01C2
:100870001F5F1B1520F3DF91CF911F910F91FF9008
:10088000EF90DF90CF90BF90AF900895982FFB012D
:100890008156863010F4975505C0892F81548630D3
:1008A00020F49753908381E00895892F80538A30F4
:1008B00010F080E00895808381E00895EF92FF9228
:1008C0000F931F93DF93CF930F92CDB7DEB77C01C9
:1008D0008B01FC018081BE016F5F7F4F0E94460447
:1008E000882391F089818295807F8983F7018181B6
:1008F000B8010E944604882339F0F801808199816B
:10090000892B808381E001C080E00F90CF91DF913F
:100910001F910F91FF90EF900895EF92FF920F9328
:100920001F93DF93CF9300D0CDB7DEB78C017B014F
:10093000BE016F5F7F4F0E945E048823A1F0C80153
:100940000296BE016E5F7F4F0E945E04882359F0BD
:10095000998180E02A8130E0822B932BF7019183EB
:10096000808381E001C080E00F900F90CF91DF91F4
:100970001F910F91FF90EF900895EF92FF920F93C8
:100980001F93DF93CF9300D000D0CDB7DEB78C019B
:100990007B01BE016F5F7F4F0E945E04882309F4D4
:1009A0004AC0C8010296BE016E5F7F4F0E945E047E
:1009B000882309F440C0C8010496BE016D5F7F4FD3
:1009C0000E945E048823B9F1C8010696BE016C5FDF
:1009D0007F4F0E945E04882371F1298130E040E05E
:1009E00050E0522F4427332722278A8190E0A0E04D
:1009F000B0E0DC0199278827282B392B4A2B5B2B69
:100A00008C8190E0A0E0B0E0282B392B4A2B5B2BA7
:100A10008B8190E0A0E0B0E0BA2FA92F982F882713
:100A2000282B392B4A2B5B2BF70120833183428300
:100A3000538381E001C080E00F900F900F900F90E2
:100A4000CF91DF911F910F91FF90EF900895DB01FF
:100A5000FC0120E080E03AE0908190539A3018F059
:100A6000882351F008C0239F202D1124290F8F5F68
:100A70003196833089F72C930895F89410BC80E167
:100A800089B988E98AB986E880BD789408951F926B
:100A90000F920FB60F9211248F93EF93FF938CB1A7
:100AA000E0918501F0E0E957FE4F80838091850158
:100AB0008F5F8093850180918501803111F41092C0
:100AC0008501809186018F5F80938601FF91EF9170
:100AD0008F910F900FBE0F901F90189590918401E9
:100AE0008091850120E0981321E0822F0895909154
:100AF0008401809185019817D1F3F894E0918401E5
:100B0000F0E0E957FE4FE081809184018F5F809390
:100B1000840180918401803111F4109284018091CC
:100B2000860181508093860178948E2F08955D9B75
:100B3000FECF8CB9089580E20E94970508950F9327
:100B40001F93CF93DF93062FEC0110E004C089912F
:100B50000E9497051F5F1017D0F3DF91CF911F916F
:100B60000F9108950F931F9307E911E0A8010E94C8
:100B7000D203C80168E00E949F051F910F9108955C
:100B80000F931F9307E911E0B8010E94C003C80149
:100B900064E00E949F051F910F9108950F931F938A
:100BA00007E911E0B8010E94AE03C80162E00E94AB
:100BB0009F051F910F910895EF92FF920F9327E9E0
:100BC000E22E21E0F22EA7012AE004E00E940504B3
:100BD00080E28093A201C7016CE00E949F050F9103
:100BE000FF90EF900895EF92FF920F936091A7010D
:100BF0007091A8018091A9019091AA0137E9E32E93
:100C000031E0F32EA7012AE004E00E94050480E20F
:100C10008093A201C7016CE00E949F050F91FF9095
:100C2000EF900895CF93DF93EC0103C00E949705E6
:100C3000219688818823D1F7DF91CF910895CF93B2
:100C4000DF93EC01FE018491882321F00E94970537
:100C50002196F8CFDF91CF91089584E590E00E942E
:100C60001F060895F8949AE095BD87EC83BD14BCE7
:100C700089B7806889BF1FBC9EBD8FE19EE49BBD84
:100C80008ABD1DBC1CBC89B7806189BF789408955A
:100C90001F920F920FB60F9211248F939F93AF93D1
:100CA000BF938091A3019091A40101969093A40118
:100CB0008093A3018091A7019091A801A091A9011F
:100CC000B091AA010196A11DB11D8093A701909337
:100CD000A801A093A901B093AA01BF91AF919F91E0
:100CE0008F910F900FBE0F901F9018951F920F922B
:100CF0000FB60F9211248F939F938091A50190912D
:100D0000A60101969093A6018093A5019F918F91D2
:100D10000F900FBE0F901F9018959C011092A60186
:100D20001092A5018091A5019091A60182179307C9
:100D3000C8F308959C011092A4011092A301809120
:100D4000A3019091A40182179307C8F308958A988C
:100D5000929AD398DB9AD19AD998D298DA9AD09A63
:100D6000D89A14BA08958FEF84BB089514BA0895E1
:100D7000D8988A95F1F7D89A089580B329B339B3F2
:100D800090E09695879596958795817023FD826072
:100D900032FD84600895482F1092A4011092A3019F
:100DA000209160003091610013C089B390E0969566
:100DB0008795969587958170442319F0882319F0BB
:100DC00011C0882379F0CB9903C0862F83600895E2
:100DD0008091A3019091A4018217930730F3862F8D
:100DE0008260089581E008956F927F929F92AF9202
:100DF000BF92CF92DF92EF92FF920F931F93DF93F8
:100E0000CF9300D00F92CDB7DEB73C016B01FC0150
:100E10001082CB9BEAC0CA99E8C093B2D99AF1E19B
:100E20009F1609F46BC082E2981619F064E0F62E62
:100E3000C6C0E091AB01F091AC010680F781E02DD6
:100E4000CE01029609958A819B81F6019183808368
:100E500081E060E20E94CB06F82EF1E08F1709F0E6
:100E6000AEC01B810E94B30615BBD99880E060E339
:100E70000E94CB06F82E81E0F81609F0A0C08A8106
:100E800085BBD99A00E010E0EE24E3946E0108944B
:100E9000C11CD11C1FC08E2D60E40E94CB06F82E11
:100EA000E1E08E1709F5E091AB01F091AC0100840F
:100EB000F185E02DC6010995898185BBEE2011F0F1
:100EC000D99801C0D99A80E0EE2009F481E0E82E9B
:100ED0000F5F1F4F8A819B8108171907E0F28E2D43
:100EE00060E50E94CB06F82E0E94B606E091AB01A9
:100EF000F091AC010284F385E02D5EC081E060E2F8
:100F00000E94CB06F82EF1E08F1709F058C013B3FA
:100F1000D99880E060E30E94CB06F82E81E0F816B5
:100F200009F04DC023B3D99A912F80E030E0822B95
:100F3000932B9B838A83E091AB01F091AC010190EC
:100F4000F081E02DCE010296099500E010E0EE243C
:100F5000E3945E010894A11CB11C1FC08E2D60E4B7
:100F60000E94CB06813011F0F82E1CC083B3898318
:100F7000E091AB01F091AC010280F381E02DC5015D
:100F80000995EE2011F0D99801C0D99A80E0EE20A1
:100F900009F481E0E82E0F5F1F4F8A819B810817BB
:100FA0001907E0F2F60111830083E091AB01F091A3
:100FB000AC010480F581E02D8A819B810995D99847
:100FC0001092A4011092A301209160003091610061
:100FD00002C0CB9B07C08091A3019091A40182170E
:100FE0009307B8F3F301908201C0FF248F2D0F9077
:100FF0000F900F90CF91DF911F910F91FF90EF9085
:10100000DF90CF90BF90AF909F907F906F900895AA
:101010009093AC018093AB010E94B606D9980895D5
:1010200081E00E94B8060895AEE7B3E087E590E05E
:10103000FC010196E491ED9323E0A938B207C1F7D2
:101040000895E19B02C081E008958EE793E060E09F
:1010500070E04BE050E00E9480178BE090E00E942F
:101060009017AC01EEE7F3E02FEF3FEF81912827D7
:10107000822F82958227082E869586958025082EB8
:10108000869580258770022E232F86950794879555
:10109000302D2827069487953025282783E0E938C6
:1010A000F80721F74217530711F480E008950E94D2
:1010B000140882E008950E942108882311F00E94FC
:1010C00014080895E19B02C081E008958EE793E043
:1010D00060E070E04BE050E00E949617EEE7F3E02E
:1010E0006FEF7FEF81916827862F82958627082EE4
:1010F000869586958025082E869580258770062EF4
:10110000672F869507948795702D68270694879595
:101110007025682783E0E938F80721F78BE090E035
:101120000E94AD1780E0089586E191E00E941F06BD
:10113000809181030E94CE050E942D0684E091E0FB
:101140000E941F06809180030E94CE050E942D06FA
:1011500082EF90E00E941F0680917E030E94CE05E0
:101160000E942D0680EE90E00E941F0680917F0372
:101170000E94CE050E942D060E942D068EEC90E066
:101180000E941F06809182030E94CE050E942D06B8
:101190008CEB90E00E941F06809183030E94CE0595
:1011A0000E942D068AEA90E00E941F068091840327
:1011B0000E94CE050E942D0688E990E00E941F063D
:1011C000809185030E94CE050E942D0686E890E05E
:1011D0000E941F06809186030E94CE050E942D0664
:1011E00084E790E00E941F06809187030E94CE054D
:1011F0000E942D060E942D0682E690E00E941F06A6
:10120000809188030E94CE050E942D06089587B321
:10121000806B87BBBE9888B38F7588BBC49A80E506
:101220008DB981E08EB908958FB9779BFECF08956F
:101230001FB8779BFECF8FB10895C49A0895C49AC2
:1012400008951F93142FC4986F71862B0E94140960
:10125000812F0E941409C49A1F9108951F93182F7B
:10126000282F30E0207630708091B10190E028176F
:10127000390781F080EA6FE143E00E942109412FA4
:1012800040764093B10142954695477080E86FE102
:101290000E9421091F9108950F931F93182F062F65
:1012A0000E942E0980E4612F402F0E9421091F9186
:1012B0000F9108950F931F93182F072F0E944C0929
:1012C000812F8F5F602F0E944C091F910F9108950D
:1012D00088E360EA0E944C09089588E361EA0E946D
:1012E0004C090895982F8091B401882331F09923F7
:1012F00011F463E005C062E003C0692F911161E061
:1013000087E70E944C0908956091B2017091B30182
:101310008AE16130780724F08CE06FEF79E103C057
:10132000615070408CE00E945A0980E86EE140E410
:101330000E94210908950E9484090895BC0160500B
:10134000764E86E00E945A0980E86FE148E00E94EC
:10135000210908958FE10E942E0980EA6FE144E09F
:101360000E94210908950F931F938C0184EEF801C8
:1013700060810E944C0985EEF80161810E944C0950
:1013800082EEF80162810E944C0983EEF8016381CC
:101390000E944C0980EEF80164810E944C0981EEA4
:1013A000F80165810E944C098FE10E942E0980E8B6
:1013B0006BE140EC0E94210980E86FE144E00E946B
:1013C00021091F910F910895BC016050764E82E073
:1013D0000E945A098AE760E040E00E942109C4980F
:1013E0008AE70E94140908950F931F93CF93DF9308
:1013F0008C01EB0106C0F80181918F010E94140954
:1014000021972097C1F7DF91CF911F910F910895F8
:10141000C4988AE30E94140908951F93162FC49854
:10142000962F9F71892B0E94140917FF03C080E03B
:101430000E9414090E941809C49A1F9108951F93CD
:10144000182F0E942E0980E0612F0E940D0A1F9123
:1014500008950F931F93182F0E941F0A082F812FA2
:101460008F5F0E941F0A382F20E0200F311DC90115
:101470001F910F91089580EA6EE140E20E942109D8
:101480008DE10E941F0A8823D9F380E86FE144E0D0
:101490000E942109089580EA6FE144E00E94210939
:1014A0008DE10E941F0A82FDFBCF8FE10E941F0A7F
:1014B00083FDFBCF80E86EE148E00E94210980E8CF
:1014C0006EE140E20E942109089589E30E941F0A0B
:1014D00008950F931F938CE10E941F0A082F182F65
:1014E00001FF05C080EA6CE142E00E94210910FF83
:1014F00005C080EA6CE141E00E942109802F8370E1
:101500001F910F91089584ED61E10E944C0982EDD5
:1015100061E00E944C098AEE0E941F0A80FDFBCF09
:1015200082ED60E00E944C0989ED0E941F0A90E064
:101530009695879596958795817008950F931F933B
:10154000982F8B0184ED692F0E944C0986EDB8011C
:101550000E945A098AEE0E941F0A80FDFBCF1F914C
:101560000F9108950F931F93CF93DF93C49A8FEF3A
:1015700060E04FEF0E94210980E49FE10197F1F7BD
:1015800080E06DE10E940D0A8823D1F38FE160E0D5
:101590000E944C0980E160E070E00E945A0982E1FB
:1015A0006FEF7FE10E945A098AE06FEF7FE10E94AE
:1015B0005A0987E60E942E0987E667E00E944C09D7
:1015C00080E067E60E940D0A80FDFACF80EA67E6B8
:1015D00042E00E94210980E86FE140E30E94210976
:1015E00086E10E942E0980E06FE10E940D0A85FDD0
:1015F000FACF86E10E94290AEC0188E60E94290AB6
:10160000C817D907B1F5C750D84F99F580EA67E6F2
:1016100042E00E94210986E66AEA0E944C0987E6B8
:1016200063E10E944C0980E067E60E940D0A80FD9C
:10163000FACF80EA67E642E00E94210980E86FE184
:1016400040E30E94210986E10E942E0980E06FE1BB
:101650000E940D0A85FDFACF86E10E94290A8C01BD
:1016600088E60E94290A20E00817190719F421E0EA
:1016700001C020E0822FDF91CF911F910F9108953B
:101680000FC08CE10E941F0A81FF0AC080E86FE151
:1016900040E80E94210980EA6FE140E80E942109A8
:1016A00080E06FE10E940D0A83FDEBCF0895EF9279
:1016B000FF920F931F938C017B010E94400B80E0EF
:1016C00090E00E94E409C801B7010E94F409C49A9D
:1016D000C7010E949E091F910F91FF90EF900895FE
:1016E0001F93CF93DF93182FC49A8093B4018FEF89
:1016F00060E04FEF0E94210980E49FE10197F1F73C
:10170000C0E0D0E007C021968FE0CF3FD80711F4AA
:1017100080E06FC080E06DE10E940D0A882399F39C
:101720001092B3011092B20188E060E070E00E9474
:101730005A098CE060E070E00E945A098AE06FEF7D
:1017400079E10E945A0984E060E07AE10E945A0936
:1017500086E06FEF7FE10E945A090E946D0988E2DE
:101760006FE370E30E945A0980E369EF77EF0E940C
:101770005A0980EC6DE00E944C0981EC60E00E9407
:101780004C09112311F043E301C042E380E862EC0D
:101790000E942109112341F084EC65E10E944C096B
:1017A00086EC62E170E007C084EC62E10E944C09C3
:1017B00086EC62E17CE00E945A098AEC6EEE75E0EC
:1017C0000E945A0980E160E071E00E949E0A1123A4
:1017D00029F080E060E071E00E949E0A88E760EDF9
:1017E00077E00E945A0982E70E941F0A863008F0BB
:1017F0008F5FDF91CF911F910895EF92FF920F932A
:101800001F93DF93CF9300D000D000D0CDB7DEB7C9
:101810006091B2017091B30180E00E945A09C498AE
:101820008AE30E9414098E010F5F1F4F37E0E32EF9
:10183000F12CEC0EFD1E05C00E941809F8018193E1
:101840008F010E151F05C1F7C49A89819A81909363
:10185000B3018093B2012B813C818D8187FF03C04E
:101860002450304004C00E94840920E030E0C901C7
:1018700026960FB6F894DEBF0FBECDBFCF91DF9195
:101880001F910F91FF90EF9008950F931F93CF93A7
:10189000DF938C01EB01C4988AE30E94140906C00F
:1018A0000E941809F80181938F0121972097C1F7B1
:1018B000C49ADF91CF911F910F910895EF92FF92FB
:1018C0000F931F93CF93DF937C018B010E94FD0B3D
:1018D000EC01009751F00817190708F4E801C70157
:1018E000BE010E94450C0E948409CE01DF91CF9178
:1018F0001F910F91FF90EF900895AC0120E030E030
:10190000FB01E20FF31FDA01A20FB31F8C9180835A
:101910002F5F3F4F2630310599F70895FC01DB0119
:1019200080818C93818111968C931197828112967C
:101930008C931297838113968C930895FC012181D7
:1019400030E0908180E0282B392BC9010895FC01FB
:10195000708361830895FC01238130E040E050E012
:10196000808190E0A0E0B0E0B82FAA2799278827CF
:10197000282B392B4A2B5B2B818190E0A0E0B0E033
:10198000DC0199278827282B392B4A2B5B2B828156
:1019900090E0A0E0B0E0BA2FA92F982F8827282B3D
:1019A000392B4A2B5B2BB901CA010895FC01872F03
:1019B0009927AA27BB278083CB01AA27BB2781832E
:1019C000BB27A72F962F852F828343830895AC01D1
:1019D00020E030E0FA01E20FF31FDB01A20FB31F9A
:1019E00090818C91981711F080E008952F5F3F4F00
:1019F0002630310579F781E00895AC0120E030E030
:101A0000FA01E20FF31FDB01A20FB31F90818C914B
:101A1000981711F080E008952F5F3F4F2430310573
:101A200079F781E00895CF92DF92EF92FF920F93C2
:101A30001F93CF93DF9300918600109187007C0164
:101A4000E80190E1C92ED12CC00ED11EF701819181
:101A50007F01BE010E94EE032496CC15DD05B1F78F
:101A6000C8010E941206DF91CF911F910F91FF9044
:101A7000EF90DF90CF900895AF92BF92CF92DF9218
:101A8000EF92FF920F931F93DF93CF930F92CDB7F7
:101A9000DEB77C016B0100E010E05E010894A11C40
:101AA000B11CC701B5010E945E04882389F0F601CC
:101AB000E00FF11F898180830F5F1F4F06301105F2
:101AC00011F481E006C083E090E0E80EF91EE9CF52
:101AD00080E00F90CF91DF911F910F91FF90EF90D9
:101AE000DF90CF90BF90AF900895AF92BF92CF920A
:101AF000DF92EF92FF920F931F93DF93CF930F929A
:101B0000CDB7DEB77C016B0100E010E05E01089408
:101B1000A11CB11CC701B5010E942705982F88237D
:101B200091F0F601E00FF11F898180830F5F1F4F55
:101B30000430110511F481E007C0892F90E001966F
:101B4000E80EF91EE7CF80E00F90CF91DF911F9153
:101B50000F91FF90EF90DF90CF90BF90AF900895DE
:101B6000CF92DF92EF92FF920F931F93CF93DF9369
:101B700000919A0010919B007C01E80122E1C22EA5
:101B8000D12CC00ED11EF70181917F01BE010E94B0
:101B9000AE032396CC15DD05B1F7C8010E941206ED
:101BA000DF91CF911F910F91FF90EF90DF90CF9039
:101BB00008950F931F93CF93DF93EC016C31710560
:101BC00010F480E01BC00E949E0C8C01CE01029696
:101BD0000E949E0C2C813D810130110569F48050DA
:101BE000984051F4263041F420E0343009F021E0EF
:101BF00081E02827822F02C080E090E0DF91CF9122
:101C00001F910F91089508950E94F30583EA91E0D2
:101C10000E941F060895DF92EF92FF920F931F9389
:101C2000CF93DF93162F882309F420C10E94650A01
:101C3000082F882309F41AC1D090820322E0D2220F
:101C4000823068F0DD2059F00E94040E802F0E943F
:101C5000CE0582E691E00E941F060E942D0680912B
:101C6000AF019091B001892B41F0DD2009F4FEC055
:101C70000E94040E8DE491E0DEC00E94FD0B7C0109
:101C8000009709F4F3C0BC0181E8E816F10410F0F4
:101C900060E870E08EEF92E00E94450CDD2039F0A4
:101CA0000E94040E8EEF92E0B7010E94C81111232A
:101CB00009F4C9C080917E03882309F47CC08AE0BE
:101CC00093E00E949E0C10E028E08030920711F40F
:101CD00011E009C08650984031F0DD2009F45EC063
:101CE00087E791E059C082E690E06EEF72E00E94D3
:101CF000E70C082F80E993E06EEF72E00E94E70C9A
:101D0000882341F4002349F4DD2009F447C081E72A
:101D100091E042C0002309F44EC0112309F44BC0E6
:101D200082E790E06CE173E00E94FD0C882329F4C7
:101D3000DD20A1F188E991E02FC080911503813168
:101D400029F0DD2059F189E891E026C000910C03CB
:101D5000000F000F0C7310E0045F1C4FC8010E94BD
:101D60009E0CEC01C80102960E949E0CC334D10562
:101D700019F484349105F9F0C434D10549F420E014
:101D800030E08334910511F421E030E0222399F40E
:101D9000DD2021F08EE791E00E941F068091C603AE
:101DA0009091C70301969093C7038093C603DD20EB
:101DB00009F45AC045C08091BE039091BF030196BB
:101DC0009093BF038093BE03C701A0E0B0E02091D1
:101DD000C0033091C1034091C2035091C303820FED
:101DE000931FA41FB51F8093C0039093C103A093BA
:101DF000C203B093C303DD2011F00E942D06F092C0
:101E0000B001E092AF018091A7019091A801A0914B
:101E1000A901B091AA018093890390938A03A093AA
:101E20008B03B0938C030E941008DD20F9F00E9410
:101E3000040E87E491E00E941F060E942D0616C042
:101E400088E391E00DC08091C8039091C903019689
:101E50009093C9038093C803DD2031F088E291E0BC
:101E60000E941F060E942D060E949B09DF91CF91C0
:101E70001F910F91FF90EF90DF9008950F931F93A4
:101E80001091B501112321F0113009F084C016C062
:101E9000882309F480C080E993E00E94B30910927E
:101EA000B60180E00E9472090E94F3058AEE91E07B
:101EB0000E941F0681E08093B5016DC0882359F40C
:101EC0000E94AA090E94F30589ED91E00E941F0675
:101ED0001092B50160C080918003882389F10E942F
:101EE000650A082F833090F08091B601882341F570
:101EF0001093B60181E00E9472098091820384FFF1
:101F00001FC00E94F30587EC91E013C08230C1F03E
:101F10008091B6018823A1F01092B60180E00E9462
:101F200072098091820384FF0BC00E94F30584EB49
:101F300091E00E941F06802F0E94CE050E942D0670
:101F40000E94690A182F882331F1282F80FF09C0C9
:101F50008091C4039091C50301969093C50380932B
:101F6000C40321FF09C08091D0039091D103019651
:101F70009093D1038093D0038091820385FF0BC09F
:101F80000E94F3058DEA91E00E941F06812F0E94B6
:101F9000CE050E942D068091B5011F910F910895E5
:101FA0002F923F924F925F926F927F928F929F9269
:101FB000AF92BF92CF92DF92EF92FF920F931F9357
:101FC000DF93CF93CDB7DEB728970FB6F894DEBF77
:101FD0000FBECDBF282E362E4A0128013901CD82F1
:101FE000DE82EF82F8860E94F30589EF91E00E947D
:101FF0001F06822D0E94CE050E949B05832D0E9404
:10200000CE050E949B05AA24BB24C501B4017E0114
:102010000894E11CF11CA70124E004E00E940504DF
:10202000C70164E00E949F050E949B05C301B201A5
:102030000E94DC0582E2281631F46D817E818F8159
:1020400098850E94DC050E942D0628960FB6F8940C
:10205000DEBF0FBECDBFCF91DF911F910F91FF90DB
:10206000EF90DF90CF90BF90AF909F908F907F9038
:102070006F905F904F903F902F900895CF93DF9394
:10208000EC018334910519F485E292E005C08434B3
:10209000910529F48EE192E00E941F0609C080E2BA
:1020A0000E949705CE010E94C00580E20E9497051C
:1020B000DF91CF910895CF93DF93EC0185319105A6
:1020C00019F483E392E005C08431910529F48CE290
:1020D00092E00E941F0609C080E20E949705CE018F
:1020E0000E94C00580E20E949705DF91CF9108957C
:1020F000EF92FF920F931F93CF93DF93FC018081A8
:10210000880F880F8C73EF01C80FD11D8185813135
:10211000B9F488E192E00E941F06CE010E949E0C55
:102120008C01CE0102960E949E0C7C01C8010E9487
:102130003E108EE30E949705C7010E943E1041C0E9
:10214000863009F044C082E192E00E941F06CE0171
:102150000E949E0C8C01CE0102960E949E0C7C0176
:10216000C8010E945B108EE30E949705C7010E9480
:102170005B10CE010C960E949E0C7C018C011170AC
:102180008AE092E00E941F06C8010E94C00584E018
:1021900092E00E941F06CE0104960E94AB0C0E94A2
:1021A000B205E4FE0EC0CE0108960E94AB0C7B0186
:1021B0008C018EEF91E00E941F06C801B7010E94BA
:1021C000B2058DE50E94970580E20E949705DF9198
:1021D000CF911F910F91FF90EF9008951F93CF9390
:1021E000DF93EC018CE492E00E941F069A8180E06C
:1021F0002B8130E0822B932B0E94C0051985113072
:1022000019F486E492E004C0163029F480E492E0E8
:102210000E941F060CC0113119F48AE392E0F8CF36
:102220008CE20E949705812F90E00E94C0058CE20D
:102230000E949705CE010C960E94130D8EE30E941A
:102240009705CE0140960E94130D8DE50E949705DB
:1022500080E20E949705DF91CF911F910895CF935F
:10226000DF93EC018CE592E00E941F06CE010696FA
:102270000E949E0C8130910519F487E592E005C01B
:102280008230910529F482E592E00E941F0602C087
:102290000E94C0058CE20E94970588E20E94970583
:1022A000CE0108960E94B00D8CE20E949705CE01E7
:1022B0000E960E94130D89E20E9497058EE30E94FC
:1022C000970588E20E949705CE0142960E94B00DC4
:1022D0008CE20E949705CE0148960E94130D89E278
:1022E0000E9497058DE50E94970580E20E94970560
:1022F000DF91CF910895AF92BF92CF92DF92EF928C
:10230000FF920F93DF93CF9300D000D0CDB7DEB70D
:102310007C015B018BE50E949705CC24DD24C6017E
:10232000B5016E010894C11CD11CA60124E004E093
:102330000E940504C60164E00E949F058CE20E9491
:102340009705C7010C960E949E0C0E94C0058CE266
:102350000E949705C70106960E94B00D8EE30E9469
:102360009705C7010E94B00D8DE50E94970580E298
:102370000E9497050F900F900F900F90CF91DF91D3
:102380000F91FF90EF90DF90CF90BF90AF900895A6
:102390000F931F93CF93DF93EC01809183038823E6
:1023A00019F0CE010E947B118E01025F1F4FCE01FA
:1023B0000C960E949E0C28E08630920741F4809192
:1023C00085038823A9F0C8010E942F1111C08050F5
:1023D000984071F480918403882351F0C8010E94D1
:1023E000EE1080918603882319F0C8010E947810AE
:1023F000DF91CF911F910F9108950E94F3058DED0C
:1024000092E00E941F0608952F923F924F925F9292
:102410006F927F928F929F92AF92BF92CF92DF92F4
:10242000EF92FF920F931F93DF93CF9300D00F9201
:10243000CDB7DEB7262E4090A7015090A80160903E
:10244000A9017090AA01CE010196BE016E5F7F4F77
:102450000E94F406382E8090A7019090A801A090C9
:10246000A901B090AA01882309F468C181E0381657
:1024700009F03BC1809187038823D1F04A815B81B9
:1024800095018401041915092609370980918903EA
:1024900090918A03A0918B03B0918C037301620128
:1024A000C81AD90AEA0AFB0A898161E00E94D00FA2
:1024B00080918803882379F084189508A608B708C6
:1024C000CA80DB80C301B201A50194010981EE2419
:1024D000E3940E94D2168981813109F02FC11091B5
:1024E000820311708AE892E00E949E0C7C01112305
:1024F00061F00E94FD116091AD017091AE018EE717
:1025000092E00E94C8110E942D068FEFE8168FEF0F
:10251000F806C1F584E892E060E973E00E947D0C62
:1025200080917E0280938E0380917F0280938F033F
:102530000E94FD118AEA92E00E941F0680E993E062
:102540000E94B00D84EA92E00E941F0680918E03E3
:102550000E94CE058EE20E94970580918F030E9413
:10256000CE050E942D0680918E03882341F4809130
:102570008F03853021F481E080938D0356C08AE774
:1025800092E009C08EEFE8168FEFF80659F40E942A
:10259000FD1187EB92E00E941F060E942D0610920B
:1025A0008D0343C080917F03882309F4C3C080E07A
:1025B000E81688E0F80609F4BDC086E0E81688E071
:1025C000F80641F56091AD017091AE018CE892E0A2
:1025D0000E94D90D882329F40E94FD1182ED92E01A
:1025E00016C084E892E064E972E00E94E70C882358
:1025F00009F0A0C088E690E064E872E00E94E70C71
:10260000882309F097C00E94FD118FEB92E00E9491
:102610001F0609C00E94FD1183E792E00E941F0679
:10262000C7010E94C0050E942D068091D20390919F
:10263000D30301969093D3038093D2037FC08091FC
:10264000CA039091CB0301969093CB038093CA0366
:102650008091AD019091AE01A0E0B0E02091CC035B
:102660003091CD034091CE035091CF03820F931F41
:10267000A41FB51F8093CC039093CD03A093CE03EA
:10268000B093CF038091820383FF10C00E94F305B3
:1026900087EE92E00E941F066091AD017091AE013D
:1026A0008EE792E00E94C8110E942D060E94400B06
:1026B0008091AD019091AE010E949E093FC00E94A1
:1026C000F30587EE92E00E941F0682E692E00E94E8
:1026D0001F060E942D068091D4039091D503019688
:1026E0009093D5038093D40329C084189508A60835
:1026F000B7084A815B818091890390918A03A091F8
:102700008B03B0918C0373016201C81AD90AEA0ADB
:10271000FB0A8981632D950184010E94D00FCA8034
:10272000DB80C301B201A50194010981E32C0E9461
:10273000D21604C0222009F082CFC1CF0F900F9093
:102740000F90CF91DF911F910F91FF90EF90DF904D
:10275000CF90BF90AF909F908F907F906F905F9041
:102760004F903F902F9008958CE990E00E940808C8
:1027700008951092B0011092AF010E941D090E94AD
:102780009B090895CF93DF93EC01E091B701F0919D
:10279000B801E038F10520F4E250FD4F808102C01D
:1027A0000E94180988838091B7019091B801019621
:1027B0009093B8018093B701DF91CF910895FC0108
:1027C0008091AF019091B001918380831092B80104
:1027D0001092B7010E94080A08950F931F938C016D
:1027E0000E941F091093AE010093AD011F910F913C
:1027F0000895DC012091B7013091B80120383105EE
:1028000058F4F901E258FD4F8C9180832F5F3F4FC0
:102810003093B8012093B7018C910E941409089558
:102820001092B8011092B70180E090E00E94E40994
:1028300008958091B901882319F08130D9F40EC030
:1028400080918D038823B1F00E94F30582E093E02C
:102850000E941F0681E08093B9010CC080918D0316
:10286000882341F40E94F30581EF92E00E941F0645
:102870001092B9018091B9010895EF92FF920F93E0
:102880001F93CF93DF930E946E05882309F4BBC08A
:102890000E9477058A3019F0EFE4F1E0AAC085E4E0
:1028A00093E00E941F06EE2482E493E00E941F063C
:1028B00010E00E947705982F8A30C9F08F3711F009
:1028C000883039F41123A9F31150892F0E949705FC
:1028D000F0CF8052803668F7E12FF0E0E256FC4FEF
:1028E0009083892F0E9497051F5F1F3111F70E9467
:1028F0002D06E12FF0E0E256FC4F10821123A1F2E9
:1029000090E0FF2401C09F5FA92FB0E0A256BC4F0A
:102910008C918032C1F38823E9F0EF2DF0E0EE0FC7
:10292000FF1FEA56FC4FB183A083F39405C0EE234A
:1029300011F480E00AC09F5FA92FB0E0FD01E256CC
:10294000FC4FE081E03299F781E0A256BC4F1C9227
:102950008823C9F6FF2009F4A7CF009196031091B0
:102960009703CBEED0E006C0C8010E94771700970E
:1029700039F024966881798161157105A9F729C01C
:10298000209739F1EA81FB818F2D66E973E0099583
:10299000E82E0E94CE050E949B058E2D807F61F45B
:1029A00082E0E81631F48AE393E00E941F0680E09B
:1029B0002BC085E393E00FC0803119F48CE293E0E3
:1029C0000AC0803219F484E293E005C08EE193E0FE
:1029D00002C087E193E00E941F0681E0E81609F03B
:1029E00063CF81E193E00E941F060DC0981729F084
:1029F000339690819923D1F706C0309721F001805A
:102A0000F281E02D099581E0DF91CF911F910F9127
:102A1000FF90EF90089581E0089582E0089589E69F
:102A200093E00E941F0680E0089583E496E00E94F0
:102A30001F0680E008950E94C91680E008950E9454
:102A40001B1780E008950F931F93DF93CF930F928E
:102A5000CDB7DEB7DB01ED91FC911197208191811B
:102A6000243681F59536A9F0963630F49136D9F0B2
:102A7000943609F068C008C09C36F9F09037C1F070
:102A8000993609F060C00AC09091820302E813E011
:102A900043C09091830303E813E03EC09091840308
:102AA00004E813E039C09091850305E813E034C0D1
:102AB0009091860306E813E02FC09091870307E802
:102AC00013E02AC0263601F5943651F0953618F4F5
:102AD0009336C9F50AC0953669F09037A1F50FC055
:102AE0009091810301E813E017C09091800300E802
:102AF00013E012C090917E030EE713E00DC0909199
:102B00007F030FE713E008C02C36E9F49136D9F4BF
:102B10009091880308E813E0813029F4F8011082CD
:102B2000992379F40DC012968D919C911397BE0153
:102B30006F5F7F4F0E945E04882329F08981F8012E
:102B4000808380E001C081E10F90CF91DF911F91E0
:102B50000F9108950E94331680E008950E94641634
:102B600080E008950E94140880E008950E942108E2
:102B70008111806208950E94620881118062089527
:102B80000E94940880E008950E94C91608950E944A
:102B90001B1708950E94331608950E946416089525
:102BA000FF920F931F930E94A7030E9432060E9478
:102BB0003D050E94A7060E94070981EC96E00E944D
:102BC0001F0685E996E00E941F060E945B080E948E
:102BD00094080E942D060E94030E0E94B4130091D7
:102BE0008103802F0E94700B182F882329F486E719
:102BF00096E00E941F06FFCF87E696E00E941F0620
:102C0000812F0E94CE05002319F489E596E002C0C9
:102C100080E696E00E941F0682E596E00E941F066D
:102C20000E942D060E941914F82E00E081E0F8168B
:102C300009F401E0802F0E943E0F182F602F0E94A0
:102C40000B0E60E0113009F461E08F2D0E94041238
:102C50000E943D14882331F71F910F91FF90089532
:102C60000E94D015FDCF1092BF031092BE031092A8
:102C7000C0031092C1031092C2031092C3031092BA
:102C8000C5031092C4031092C9031092C803109296
:102C9000C7031092C6031092CB031092CA0310927E
:102CA000CC031092CD031092CE031092CF0310925A
:102CB000D1031092D0031092D5031092D403109236
:102CC000D3031092D20308958DEE96E00E941F0662
:102CD00089EE96E00E941F068091BE039091BF038B
:102CE0000E94C0050E949B056091C0037091C103C2
:102CF0008091C2039091C3030E94B2050E949B057C
:102D00008091C4039091C5030E94C0050E949B0559
:102D10008091C8039091C9030E94C0050E949B0541
:102D20008091C6039091C7030E94C0050E942D06A2
:102D300085EE96E00E941F068091CA039091CB0316
:102D40000E94C0050E949B056091CC037091CD0349
:102D50008091CE039091CF030E94B2050E949B0503
:102D60008091D0039091D1030E94C0050E949B05E1
:102D70008091D4039091D5030E94C0050E949B05C9
:102D80008091D2039091D3030E94C0050E942D062A
:102D9000089510927A0210927B0210927D02109296
:102DA0007C0208958F929F92AF92BF92CF92DF9252
:102DB000EF920F934B015C0180917C0290917D0218
:102DC000019690937D0280937C02A0917A0290916B
:102DD0007B02A03179F48CE0989FF0011124E65435
:102DE000FE4F892F8F5F80937B02803179F41092A0
:102DF0007B020CC08CE0989FF0011124E654FE4F3A
:102E00009F5F90937B02AF5FA0937A028082918252
:102E1000A282B38224833583468357830087E18669
:102E2000D386C2860F91EF90DF90CF90BF90AF9086
:102E30009F908F900895EF92FF920F931F93CF93DF
:102E4000DF938EE591E00E94120680917C029091C2
:102E50007D020E94C0050E942D0680917B02C82F32
:102E6000D0E0EE24FF2433C0209709F4EC01219731
:102E70008E01000F111F0C0F1D1F000F111F000FDF
:102E8000111F06541E4FF801608171818281938168
:102E90000E94DC05F80164817581868197810E941A
:102EA000DC05F80180850E94CE050E949B05F80193
:102EB00081850E94CE050E949B05F801828593853D
:102EC0000E94C0050E942D060894E11CF11C80910F
:102ED0007A0290E0E816F9063CF2DF91CF911F915B
:102EE0000F91FF90EF900895F8940C94E017FB0178
:102EF000DC018D91019080190110D9F3990B08958F
:102F0000DC01CB01FC01E199FECF06C0FFBBEEBBAB
:102F1000E09A31960DB20D9241505040B8F70895A5
:102F2000A8E1B0E042E050E00C948217DC01CB0154
:102F300003C02D910E94A11741505040D0F7089531
:102F4000262FE199FECF9FBB8EBB2DBB0FB6F89409
:102F5000E29AE19A0FBE019608950E94A017272FCA
:102F60000C94A117991B79E004C0991F961708F0DB
:102F7000961B881F7A95C9F780950895A1E21A2EAD
:102F8000AA1BBB1BFD010DC0AA1FBB1FEE1FFF1F0D
:102F9000A217B307E407F50720F0A21BB30BE40B5D
:102FA000F50B661F771F881F991F1A9469F76095A4
:102FB0007095809590959B01AC01BD01CF0108955E
:042FC000F894FFCFB3
:102FC4008813FFFFFFFFFFFF000000000000000068
:102FD4000000FFFFFFFF3030302E3030302E303015
:102FE400302E30303000760030303A30303A3030E5
:102FF4003A30303A30303A30300088001014F91347
:10300400ED13DF13C213B913710072007600700060
:10301400707300706C0070720073640073720066E9
:10302400640066630066700066650064640064653D
:1030340000646900646100647000646C0064790079
:103044006C61006C64006C72003F00A8000B15AA50
:10305400000D15AC001515AE00C015B000BB15B3BE
:1030640000B615B600B215B900AE15BC00AA15BF5E
:10307400002315C2002315C5002315C8002315CB52
:10308400002315CE002315D1002315D4002315D712
:10309400002315DA002315DD002315E0002315E3D2
:1030A400001F15E6001B15E9000F15000000007352
:1030B400CD1553CA156CC7154CC4150000006C6FB0
:1030C400673A2074732C2064656C74612C20636DE2
:1030D400642C20726573756C742C2073697A652076
:0430E40020230000A5
:00000001FF
