:100000000C9492030C94AF030C94AF030C94AF03C5
:100010000C94AF030C94AF030C94AF030C947206D2
:100020000C94AF030C94AF030C94AF030C94A00694
:100030000C94AF030C94AF030C94AF030C94AF0378
:100040000C94AF030C94AF030C9460050C94AF03B5
:100050000C94AF030C94AF030C94AF030C94AF0358
:100060000C94AF030C94AF030D0A000101010000D2
:100070000000000000006C613A206C6F6720616C2A
:100080006C20636D64732000646C3A2064756D703D
:1000900020706C6970202020200064703A20647504
:1000A0006D702070726F746F2020200064613A20A0
:1000B00064756D702041525020202020200064691A
:1000C0003A2064756D7020495020202020202000A7
:1000D00064653A2064756D702045544820202020C6
:1000E000200064643A2064756D7020646972732026
:1000F0002020200066703A2066696C74657220507A
:100100004C495020200066653A2066696C7465721F
:10011000204554482020200066633A20455448205A
:10012000666C6F772063746C200066643A20667595
:100130006C6C206475706C65782020004F66666C6E
:10014000696E65202D3E2044524F500046696C7404
:100150006572202D3E2044524F500053656E74212D
:1001600000706B7420616C726561647920776169DD
:1001700074696E67210020706B74732077616974F5
:10018000696E6721006D61633F2000747970653F7F
:1001900020006E6F20626F6F74703F200062636199
:1001A0007374206E6F207564703F2000626361730A
:1001B000742069703F2000657468287278293A209D
:1001C000006572726F723D00666C6F77206F6666B5
:1001D0002E206E756D5F706B743D00666C6F7720BE
:1001E0006F6E2E206E756D5F706B743D0065746868
:1001F0003A206C696E6B20646F776E0D0A0065742F
:10020000683A206C696E6B2075700D0A00696F3A50
:1002100020002C61636B3D002C7365713D002C66E2
:100220006C6167733D005B5443503A005B5544502A
:100230003A00424F4F54504300424F4F54505300E6
:100240004654506461740046545063746C002C55DD
:10025000445020002C54435020002C49434D500062
:100260005B4950343A005245504C005245512000F1
:100270005B4152503A004F66666C696E65202D3EB8
:100280002044524F502100747970653F200056453C
:100290005253494F4E204D49534D4154434821201C
:1002A000706C656173652075706461746520666942
:1002B000726D776172652E00207665723D006F6EFB
:1002C0006C696E653A206D61633D006F66666C69AE
:1002D0006E65004152503A20706B74213D73726319
:1002E000206D616321004152503A20747970653F5E
:1002F00000706270287278293A200065746828546A
:1003000058293A20007062703A206C696E6B206444
:100310006F776E0D0A007062703A206C696E6B2008
:1003200075700D0A006279650D0A004855483F0D49
:100330000A003F3F3F0D0A004552524F520D0A003E
:1003400053594E5441580D0A004F4B0D0A00524567
:100350005345540D0A003E2000636F6D6D616E645D
:10036000206D6F64652E20656E74657220273F27AF
:1003700020666F722068656C702E0D0A0071202057
:100380002020202020207175697420636F6D6D61BD
:100390006E64206D6F64650D0A722020202020207D
:1003A0002020736F667420726573657420646576AF
:1003B0006963650D0A76202020202020202070729D
:1003C000696E7420706C6970626F782076657273E4
:1003D000696F6E0D0A70202020202020202070726E
:1003E000696E7420706172616D65746572730D0A57
:1003F000707320202020202020736176652070619A
:1004000072616D657465727320746F20454550523A
:100410004F4D0D0A706C202020202020206C6F6131
:100420006420706172616D65746572732066726FAD
:100430006D20454550524F4D0D0A736420202020F9
:1004400020202064756D7020737461746973746901
:1004500063730D0A737220202020202020726573A0
:10046000657420737461746973746963730D0A0D24
:100470000A6664205B6F6E5D2020656E61626C654C
:100480002066756C6C206475706C6578206D6F6487
:10049000650D0A6663205B6F6E5D2020656E61628C
:1004A0006C6520666C6F7720636F6E74726F6C2062
:1004B000666F7220455448207061636B6574730DDC
:1004C0000A6670205B6F6E5D2020656E61626C65F0
:1004D0002066696C746572696E67206F6620504C87
:1004E0004950207061636B6574730D0A6665205B0B
:1004F0006F6E5D2020656E61626C652066696C744C
:100500006572696E67206F6620455448207061638C
:100510006B6574730D0A0D0A6464203C76616C3E51
:100520002073656C65637420646961676E6F7369BD
:100530007320646972656374696F6E732E206164E1
:10054000642076616C7565733A0D0A2020202020A6
:10055000202020205B313D706C6970287278292C36
:10056000323D657468287278292C343D706C69704E
:10057000287478292C383D657468287478295D0DB5
:100580000A6465205B6F6E5D2020746F67676C6521
:100590002064756D702065746865726E6574207076
:1005A00061636B6574730D0A6469205B6F6E5D2017
:1005B00020746F67676C652064756D7020495020EA
:1005C000636F6E74656E74730D0A6461205B6F6E89
:1005D0005D2020746F67676C652064756D702041C5
:1005E000525020636F6E74656E74730D0A647020D0
:1005F0005B6F6E5D2020746F67676C652064756D3E
:1006000070205443502F55445020636F6E74656EB4
:1006100074730D0A646C205B6F6E5D2020746F67CD
:10062000676C652064756D7020504C495020696E70
:10063000666F0D0A0D0A6C61205B6F6E5D20206C89
:100640006F6720616C6C20504C495020636F6D6D5A
:10065000616E64730D0A00302E3520323031333133
:100660003132390D0A006475706C6578002068615C
:100670006C6620002066756C6C2000656E633238F5
:100680006A36303A207265762000656E6332386AC9
:1006900036303A204552524F522053455454494E19
:1006A0004720555021210D0A006279206C616C6C45
:1006B0006166612028687474703A2F2F7777772EDF
:1006C0006C616C6C6166612E64652F626C6F67296A
:1006D0000D0A0D0A000D0A57656C636F6D65207475
:1006E0006F20706C6970626F7820302E3520323048
:1006F0003133313132390D0A00747820007278209C
:1007000000202020636E742020627974657320209D
:100710002020657272202064726F702066696C748C
:100720000D0A000011241FBECFEFD8E0DEBFCDBF01
:1007300012E0A0E0B1E0E4EBF0E302C005900D921E
:10074000A432B107D9F714E0A4E2B2E001C01D92CF
:10075000A637B107E1F70E94A7160C94EB170C948B
:100760000000F89484B7877F84BFE0E6F0E08081E2
:10077000886180831082789408958A3010F4805DB7
:100780000895895C0895FB01982F92959F709A3087
:1007900010F4905D01C0995C90838F708A3010F4E2
:1007A000805D01C0895C81830895FF920F931F9340
:1007B000F82E8B01892F0E94C3030E5F1F4F8F2DD0
:1007C000B8010E94C3031F910F91FF900895CF922B
:1007D000DF92EF92FF920F931F936B017C018A01CE
:1007E000C701AA27BB27BA010E94D5030C5F1F4F80
:1007F000C601B8010E94D5031F910F91FF90EF90A1
:10080000DF90CF900895282FFB0164E60E942A18FC
:10081000392F822F0E942A18805D8083832F6AE0FF
:100820000E942A18805D8183832F0E942A18905D80
:1008300092830895AF92BF92CF92DF92EF92FF9290
:100840000F931F93CF93DF936B017C01EA01B22ECC
:10085000822F90E00197C80FD91F021708F4219644
:1008600010E09EE2A92E1AC0101711F4A882219759
:10087000B601C7012AE030E040E050E00E9436189F
:10088000605D68832197B601C7012AE030E040E04F
:1008900050E00E94361869017A011F5F1B1520F392
:1008A000DF91CF911F910F91FF90EF90DF90CF904C
:1008B000BF90AF900895982FFB018156863010F4B9
:1008C000975505C0892F8154863020F49753908323
:1008D00081E00895892F80538A3010F080E00895D8
:1008E000808381E00895EF92FF920F931F93DF932F
:1008F000CF930F92CDB7DEB77C018B01FC018081D5
:10090000BE016F5F7F4F0E945B04882391F0898155
:100910008295807F8983F7018181B8010E945B0401
:10092000882339F0F80180819981892B808381E0C7
:1009300001C080E00F90CF91DF911F910F91FF9048
:10094000EF900895EF92FF920F931F93DF93CF9351
:1009500000D0CDB7DEB78C017B01BE016F5F7F4F4A
:100960000E9473048823A1F0C8010296BE016E5F45
:100970007F4F0E947304882359F0998180E02A8177
:1009800030E0822B932BF7019183808381E001C0BB
:1009900080E00F900F90CF91DF911F910F91FF900A
:1009A000EF900895EF92FF920F931F93DF93CF93F1
:1009B00000D000D0CDB7DEB78C017B01BE016F5FE8
:1009C0007F4F0E947304882309F44AC0C80102962D
:1009D000BE016E5F7F4F0E947304882309F440C0FC
:1009E000C8010496BE016D5F7F4F0E947304882387
:1009F000B9F1C8010696BE016C5F7F4F0E94730477
:100A0000882371F1298130E040E050E0522F4427E3
:100A1000332722278A8190E0A0E0B0E0DC0199270B
:100A20008827282B392B4A2B5B2B8C8190E0A0E068
:100A3000B0E0282B392B4A2B5B2B8B8190E0A0E078
:100A4000B0E0BA2FA92F982F8827282B392B4A2BB3
:100A50005B2BF701208331834283538381E001C004
:100A600080E00F900F900F900F90CF91DF911F912A
:100A70000F91FF90EF900895DB01FC0120E080E0F2
:100A80003AE0908190539A3018F0882351F008C0D2
:100A9000239F202D1124290F8F5F3196833089F7F2
:100AA0002C930895F8941092C50080E18093C400BF
:100AB00088E98093C10086E88093C2007894089505
:100AC0001F920F920FB60F9211248F93EF93FF9303
:100AD0008091C600E0912502F0E0E95DFD4F808342
:100AE000809125028F5F80932502809125028031BD
:100AF00011F410922502809126028F5F80932602C6
:100B0000FF91EF918F910F900FBE0F901F9018954E
:100B1000909124028091250220E0981321E0822FF9
:100B2000089590912402809125029817D1F3F894AA
:100B3000E0912402F0E0E95DFD4FE0818091240224
:100B40008F5F8093240280912402803111F41092EF
:100B500024028091260281508093260278948E2F61
:100B60000895982F8091C00085FFFCCF9093C60018
:100B7000089580E20E94B10508950F931F93CF93CB
:100B8000DF93062FEC0110E004C089910E94B105AB
:100B90001F5F1017D0F3DF91CF911F910F91089530
:100BA0000F931F9307E312E0A8010E94E703C80117
:100BB00068E00E94BD051F910F9108950F931F9348
:100BC00007E312E0B8010E94D503C80164E00E9467
:100BD000BD051F910F9108950F931F9307E312E036
:100BE000B8010E94C303C80162E00E94BD051F91C5
:100BF0000F910895EF92FF920F9327E3E22E22E0E8
:100C0000F22EA7012AE004E00E941A0480E28093F9
:100C10004202C7016CE00E94BD050F91FF90EF906A
:100C20000895EF92FF920F936091470270914802EE
:100C30008091490290914A0237E3E32E32E0F32E8D
:100C4000A7012AE004E00E941A0480E28093420295
:100C5000C7016CE00E94BD050F91FF90EF900895D1
:100C6000CF93DF93EC0103C00E94B10521968881E8
:100C70008823D1F7DF91CF910895CF93DF93EC01D3
:100C8000FE018491882321F00E94B1052196F8CFBE
:100C9000DF91CF91089588E690E00E943D06089587
:100CA000F89422E02093B0002093B10087EC809369
:100CB000B3001092B20020937000109280008AE07E
:100CC00080938100109282008FE19EE490938900CE
:100CD00080938800109285001092840020936F000A
:100CE000789408951F920F920FB60F9211248F934C
:100CF0009F93AF93BF9380914302909144020196DA
:100D0000909344028093430280914702909148025D
:100D1000A0914902B0914A020196A11DB11D809394
:100D2000470290934802A0934902B0934A02BF91B0
:100D3000AF919F918F910F900FBE0F901F901895BC
:100D40001F920F920FB60F9211248F939F93809151
:100D50004502909146020196909346028093450287
:100D60009F918F910F900FBE0F901F9018959C012F
:100D700010924602109245028091450290914602DF
:100D800082179307C8F308959C01109244021092B1
:100D90004302809143029091440282179307C8F363
:100DA000089553985B9A2198299A549A5C9855987B
:100DB0005D9A209A289A87B1807C87B98AB18F730F
:100DC0008AB9089587B18F6387B98AB1806C8AB96F
:100DD000089587B1807C87B98AB18F738AB90895E5
:100DE00028988A95F1F7289A089589B123B139B1E5
:100DF00090E043E0969587954A95E1F7817021FD53
:100E0000826035FD84600895482F1092440210924C
:100E10004302209100013091010114C089B190E09A
:100E200055E0969587955A95E1F78170442319F01E
:100E3000882319F011C0882379F0199903C0862FEF
:100E40008360089580914302909144028217930732
:100E500028F3862F8260089581E008956F927F9233
:100E60008F929F92AF92BF92DF92EF92FF920F9379
:100E70001F93DF93CF9300D00F92CDB7DEB73C0125
:100E80005B01FC011082199B25C14D9923C186B1DC
:100E9000D9B0F0ECDF228F73D82A5C9A81E1D816A2
:100EA00009F495C092E2D91619F064E0F62EFCC060
:100EB000E0914B02F0914C020680F781E02DCE01CB
:100EC000029609958A819B81F5019183808381E057
:100ED00060E20E940407F82EF1E08F1709F0E4C0E9
:100EE0001B810E94E20688B1807C88B998B1812F6D
:100EF0008F73892B88B98BB18F738BB98BB1107CB1
:100F0000182B1BB95C9880E060E30E940407F82E60
:100F100081E0F81609F0C8C088B1807C88B928B192
:100F20009A81892F8F73822B88B98BB18F738BB97C
:100F30008BB1907C982B9BB95C9A00E010E0EE247A
:100F4000E3945E010894A11CB11C2DC08E2D60E4B9
:100F50000E940407F82E91E0891779F5E0914B0281
:100F6000F0914C020084F185E02DC501099588B10E
:100F7000807C88B928B19981892F8F73822B88B999
:100F80008BB18F738BB98BB1907C982B9BB9EE2072
:100F900011F05C9801C05C9A80E0EE2009F481E0D9
:100FA000E82E0F5F1F4F8A819B810817190770F287
:100FB0008E2D60E50E940407F82E0E94E906E0915C
:100FC0004B02F0914C020284F385E02D6AC081E06F
:100FD00060E20E940407F82EE1E08E1709F064C079
:100FE00006B119B15C9880E060E30E940407F82E16
:100FF000F1E08F1709F058C046B129B15C9A107C16
:101000000F73912F902B80E0207C4F73242B30E0C6
:10101000822B932B9B838A83E0914B02F0914C02AD
:101020000190F081E02DCE010296099500E010E0DC
:10103000EE24E3944E010894811C911C23C08E2D54
:1010400060E40E940407813011F0F82E20C096B1B0
:1010500089B1807C9F73892B8983E0914B02F09149
:101060004C020280F381E02DC4010995EE2011F0BD
:101070005C9801C05C9A80E0EE2009F481E0E82EE3
:101080000F5F1F4F8A819B8108171907C0F2F50176
:1010900011830083E0914B02F0914C020480F581B2
:1010A000E02D8A819B8109955C98109244021092F0
:1010B0004302209100013091010102C0199B07C039
:1010C000809143029091440282179307B8F3F30191
:1010D000D08201C0FF248F2D0F900F900F90CF91E1
:1010E000DF911F910F91FF90EF90DF90BF90AF9035
:1010F0009F908F907F906F90089590934C02809373
:101100004B020E94E9065C98089581E00E94F00677
:101110000895AEE1B4E08BE690E0FC010196E49125
:10112000ED9324E0A932B207C1F70895F99B02C0FC
:1011300081E008958EE194E060E070E04BE050E0E3
:101140000E94F7178BE090E00E940718AC01EEE1D7
:10115000F4E02FEF3FEF81912827822F829582279D
:10116000082E869586958025082E86958025877081
:10117000022E232F869507948795302D28270694D5
:1011800087953025282784E0E932F80721F74217B0
:10119000530711F480E008950E94890882E00895C1
:1011A0000E949608882311F00E9489080895F99BEF
:1011B00002C081E008958EE194E060E070E04BE0D1
:1011C00050E00E940D18EEE1F4E06FEF7FEF8191A7
:1011D0006827862F82958627082E869586958025F6
:1011E000082E869580258770062E672F8695079492
:1011F0008795702D6827069487957025682784E069
:10120000E932F80721F78BE090E00E94251880E092
:1012100008958AE291E00E943D06809121040E9497
:10122000EC050E944B0688E191E00E943D0680910A
:1012300020040E94EC050E944B0686E091E00E948B
:101240003D0680911E040E94EC050E944B0684EF2F
:1012500090E00E943D0680911F040E94EC050E94D0
:101260004B060E944B0682EE90E00E943D06809164
:1012700022040E94EC050E944B0680ED90E00E9443
:101280003D06809123040E94EC050E944B068EEBE4
:1012900090E00E943D06809124040E94EC050E948B
:1012A0004B068CEA90E00E943D06809125040E9446
:1012B000EC050E944B068AE990E00E943D06809171
:1012C00026040E94EC050E944B0688E890E00E94EC
:1012D0003D06809127040E94EC050E944B060E9467
:1012E0004B0686E790E00E943D06809128040E940C
:1012F000EC050E944B06089584B18C6284B9249851
:1013000085B1877D85B92A9A80E58CBD81E08DBD48
:1013100008958EBD0DB407FEFDCF08951EBC0DB41B
:1013200007FEFDCF8EB508952A9A08952A9A08954A
:101330001F93142F2A986F71862B0E948909812F81
:101340000E9489092A9A1F9108951F93182F282F08
:1013500030E0207630708091510290E028173907F4
:1013600081F080EA6FE143E00E949809412F4076C6
:101370004093510242954695477080E86FE10E9484
:1013800098091F9108950F931F93182F062F0E94FD
:10139000A50980E4612F402F0E9498091F910F91A9
:1013A00008950F931F93182F072F0E94C309812FB1
:1013B0008F5F602F0E94C3091F910F91089588E3EA
:1013C00060EA0E94C309089588E361EA0E94C309A4
:1013D0000895982F80915402882331F0992311F4B5
:1013E00063E005C062E003C0692F911161E087E707
:1013F0000E94C309089560915202709153028AE1DC
:101400006130780724F08CE06FEF79E103C0615020
:1014100070408CE00E94D10980E86EE140E40E94B7
:10142000980908950E94FB090895BC016050764E0A
:1014300086E00E94D10980E86FE148E00E949809A7
:1014400008958FE10E94A50980EA6FE144E00E94BF
:10145000980908950F931F938C0184EEF801608121
:101460000E94C30985EEF80161810E94C30982EEE2
:10147000F80162810E94C30983EEF80163810E9432
:10148000C30980EEF80164810E94C30981EEF8016E
:1014900065810E94C3098FE10E94A50980E86BE184
:1014A00040EC0E94980980E86FE144E00E949809AE
:1014B0001F910F910895BC016050764E82E00E940A
:1014C000D1098AE760E040E00E9498092A988AE7FB
:1014D0000E94890908950F931F93CF93DF938C0186
:1014E000EB0106C0F80181918F010E9489092197C3
:1014F0002097C1F7DF91CF911F910F9108952A98FE
:101500008AE30E94890908951F93162F2A98962F1F
:101510009F71892B0E94890917FF03C080E00E94F8
:1015200089090E948E092A9A1F9108951F93182FE6
:101530000E94A50980E0612F0E94840A1F910895EE
:101540000F931F93182F0E94960A082F812F8F5FE9
:101550000E94960A382F20E0200F311DC9011F91EB
:101560000F91089580EA6EE140E20E9498098DE1B2
:101570000E94960A8823D9F380E86FE144E00E9434
:101580009809089580EA6FE144E00E9498098DE18E
:101590000E94960A82FDFBCF8FE10E94960A83FD8E
:1015A000FBCF80E86EE148E00E94980980E86EE198
:1015B00040E20E949809089589E30E94960A0895DE
:1015C0000F931F938CE10E94960A082F182F01FF9A
:1015D00005C080EA6CE142E00E94980910FF05C056
:1015E00080EA6CE141E00E949809802F83701F918E
:1015F0000F91089584ED61E10E94C30982ED61E0DD
:101600000E94C3098AEE0E94960A80FDFBCF82EDFC
:1016100060E00E94C30989ED0E94960A90E09695C9
:10162000879596958795817008950F931F93982FAE
:101630008B0184ED692F0E94C30986EDB8010E94D9
:10164000D1098AEE0E94960A80FDFBCF1F910F916F
:1016500008950F931F93CF93DF932A9A8FEF60E043
:101660004FEF0E94980980E49FE10197F1F780E035
:101670006DE10E94840A8823D1F38FE160E00E942B
:10168000C30980E160E070E00E94D10982E16FEF60
:101690007FE10E94D1098AE06FEF7FE10E94D109CA
:1016A00087E60E94A50987E667E00E94C30980E0FB
:1016B00067E60E94840A80FDFACF80EA67E642E08E
:1016C0000E94980980E86FE140E30E94980986E152
:1016D0000E94A50980E06FE10E94840A85FDFACF8F
:1016E00086E10E94A00AEC0188E60E94A00AC817C1
:1016F000D907B1F5C750D84F99F580EA67E642E0BF
:101700000E94980986E66AEA0E94C30987E663E1B7
:101710000E94C30980E067E60E94840A80FDFACF38
:1017200080EA67E642E00E94980980E86FE140E3C2
:101730000E94980986E10E94A50980E06FE10E945D
:10174000840A85FDFACF86E10E94A00A8C0188E612
:101750000E94A00A20E00817190719F421E001C02F
:1017600020E0822FDF91CF911F910F9108950FC03C
:101770008CE10E94960A81FF0AC080E86FE140E890
:101780000E94980980EA6FE140E80E94980980E091
:101790006FE10E94840A83FDEBCF0895EF92FF92E0
:1017A0000F931F938C017B010E94B70B80E090E0A8
:1017B0000E945B0AC801B7010E946B0A2A9AC701FE
:1017C0000E94150A1F910F91FF90EF9008951F93AB
:1017D000CF93DF93182F2A9A809354028FEF60E003
:1017E0004FEF0E94980980E49FE10197F1F7C0E074
:1017F000D0E007C021968FE0CF3FD80711F480E0FA
:101800006FC080E06DE10E94840A882399F31092F2
:1018100053021092520288E060E070E00E94D10909
:101820008CE060E070E00E94D1098AE06FEF79E11E
:101830000E94D10984E060E07AE10E94D10986E04B
:101840006FEF7FE10E94D1090E94E40988E26FE313
:1018500070E30E94D10980E369EF77EF0E94D1091C
:1018600080EC6DE00E94C30981EC60E00E94C30936
:10187000112311F043E301C042E380E862EC0E94CF
:101880009809112341F084EC65E10E94C30986ECBC
:1018900062E170E007C084EC62E10E94C30986EC5B
:1018A00062E17CE00E94D1098AEC6EEE75E00E9454
:1018B000D10980E160E071E00E94150B112329F04D
:1018C00080E060E071E00E94150B88E760ED77E052
:1018D0000E94D10982E70E94960A863008F08F5F45
:1018E000DF91CF911F910895EF92FF920F931F9375
:1018F000DF93CF9300D000D000D0CDB7DEB760919A
:1019000052027091530280E00E94D1092A988AE322
:101910000E9489098E010F5F1F4F37E0E32EF12CE3
:10192000EC0EFD1E05C00E948E09F80181938F0107
:101930000E151F05C1F72A9A89819A819093530247
:10194000809352022B813C818D8187FF03C02450FC
:10195000304004C00E94FB0920E030E0C901269617
:101960000FB6F894DEBF0FBECDBFCF91DF911F91B0
:101970000F91FF90EF9008950F931F93CF93DF93F4
:101980008C01EB012A988AE30E94890906C00E9413
:101990008E09F80181938F0121972097C1F72A9A28
:1019A000DF91CF911F910F910895EF92FF920F93C6
:1019B0001F93CF93DF937C018B010E94740CEC0189
:1019C000009751F00817190708F4E801C701BE0194
:1019D0000E94BC0C0E94FB09CE01DF91CF911F91A8
:1019E0000F91FF90EF900895AC0120E030E0FB01F3
:1019F000E20FF31FDA01A20FB31F8C9180832F5FD8
:101A00003F4F2630310599F70895FC01DB018081B5
:101A10008C93818111968C931197828112968C936D
:101A20001297838113968C930895FC01218130E0F5
:101A3000908180E0282B392BC9010895FC01708327
:101A400061830895FC01238130E040E050E0808113
:101A500090E0A0E0B0E0B82FAA2799278827282B8C
:101A6000392B4A2B5B2B818190E0A0E0B0E0DC01B8
:101A700099278827282B392B4A2B5B2B828190E0D2
:101A8000A0E0B0E0BA2FA92F982F8827282B392B58
:101A90004A2B5B2BB901CA010895FC01872F9927B6
:101AA000AA27BB278083CB01AA27BB278183BB271B
:101AB000A72F962F852F828343830895AC0120E0C2
:101AC00030E0FA01E20FF31FDB01A20FB31F908198
:101AD0008C91981711F080E008952F5F3F4F2630CA
:101AE000310579F781E00895AC0120E030E0FA019A
:101AF000E20FF31FDB01A20FB31F90818C919817A7
:101B000011F080E008952F5F3F4F2430310579F7C1
:101B100081E00895CF92DF92EF92FF920F931F938F
:101B2000CF93DF9300912601109127017C01E801FA
:101B300090E1C92ED12CC00ED11EF70181917F01F9
:101B4000BE010E9403042496CC15DD05B1F7C8013F
:101B50000E943006DF91CF911F910F91FF90EF907F
:101B6000DF90CF900895AF92BF92CF92DF92EF9225
:101B7000FF920F931F93DF93CF930F92CDB7DEB7F2
:101B80007C016B0100E010E05E010894A11CB11C17
:101B9000C701B5010E947304882389F0F601E00FA4
:101BA000F11F898180830F5F1F4F0630110511F4EB
:101BB00081E006C083E090E0E80EF91EE9CF80E006
:101BC0000F90CF91DF911F910F91FF90EF90DF90D9
:101BD000CF90BF90AF900895AF92BF92CF92DF9217
:101BE000EF92FF920F931F93DF93CF930F92CDB796
:101BF000DEB77C016B0100E010E05E010894A11CDF
:101C0000B11CC701B5010E943C05982F882391F0B3
:101C1000F601E00FF11F898180830F5F1F4F0430B1
:101C2000110511F481E007C0892F90E00196E80EBC
:101C3000F91EE7CF80E00F90CF91DF911F910F91B8
:101C4000FF90EF90DF90CF90BF90AF900895CF922C
:101C5000DF92EF92FF920F931F93CF93DF93009148
:101C60003A0110913B017C01E80122E1C22ED12C06
:101C7000C00ED11EF70181917F01BE010E94C303F6
:101C80002396CC15DD05B1F7C8010E943006DF911F
:101C9000CF911F910F91FF90EF90DF90CF9008951B
:101CA0000F931F93CF93DF93EC016C31710510F408
:101CB00080E01BC00E94150D8C01CE0102960E948F
:101CC000150D2C813D810130110569F4805098403B
:101CD00051F4263041F420E0343009F021E081E075
:101CE0002827822F02C080E090E0DF91CF911F91E2
:101CF0000F91089508950E94110687EB91E00E94CC
:101D00003D060895DF92EF92FF920F931F93CF93BA
:101D1000DF93162F882309F420C10E94DC0A082FC4
:101D2000882309F41AC1D090220422E0D222823002
:101D300068F0DD2059F00E947B0E802F0E94EC0598
:101D400086E791E00E943D060E944B0680914F027B
:101D500090915002892B41F0DD2009F4FEC00E94D1
:101D60007B0E81E691E0DEC00E94740C7C0100973E
:101D700009F4F3C0BC0181E8E816F10410F060E852
:101D800070E08EE993E00E94BC0CDD2039F00E94E7
:101D90007B0E8EE993E0B7010E943F12112309F4F4
:101DA000C9C080911E04882309F47CC08AEA93E0AC
:101DB0000E94150D10E028E08030920711F411E028
:101DC00009C08650984031F0DD2009F45EC08BE8F0
:101DD00091E059C082E091E06EE973E00E945E0DEF
:101DE000082F80E394E06EE973E00E945E0D882383
:101DF00041F4002349F4DD2009F447C085E891E06F
:101E000042C0002309F44EC0112309F44BC082E103
:101E100091E06CEB73E00E94740D882329F4DD20BF
:101E2000A1F18CEA91E02FC08091B503813129F0B6
:101E3000DD2059F18DE991E026C00091AC03000F3F
:101E4000000F0C7310E004551C4FC8010E94150DC3
:101E5000EC01C80102960E94150DC334D10519F496
:101E600084349105F9F0C434D10549F420E030E020
:101E70008334910511F421E030E0222399F4DD2030
:101E800021F082E991E00E943D06809166049091E4
:101E9000670401969093670480936604DD2009F43B
:101EA0005AC045C080915E0490915F040196909362
:101EB0005F0480935E04C701A0E0B0E0209160045D
:101EC000309161044091620450916304820F931F2A
:101ED000A41FB51F8093600490936104A0936204D3
:101EE000B0936304DD2011F00E944B06F092500283
:101EF000E0924F028091470290914802A0914902DE
:101F0000B0914A028093290490932A04A0932B0451
:101F1000B0932C040E948508DD20F9F00E947B0E0E
:101F20008BE591E00E943D060E944B0616C08CE4B2
:101F300091E00DC08091680490916904019690939E
:101F4000690480936804DD2031F08CE391E00E9405
:101F50003D060E944B060E94120ADF91CF911F910D
:101F60000F91FF90EF90DF9008950F931F931091C2
:101F70005502112321F0113009F084C016C08823C6
:101F800009F480C080E394E00E942A0A109256026D
:101F900080E00E94E9090E9411068EEF91E00E9404
:101FA0003D0681E0809355026DC0882359F40E945C
:101FB000210A0E9411068DEE91E00E943D061092CA
:101FC000550260C080912004882389F10E94DC0AB8
:101FD000082F833090F080915602882341F51093AA
:101FE000560281E00E94E9098091220484FF1FC00B
:101FF0000E9411068BED91E013C08230C1F08091F8
:1020000056028823A1F01092560280E00E94E9094E
:102010008091220484FF0BC00E94110688EC91E09D
:102020000E943D06802F0E94EC050E944B060E94F4
:10203000E00A182F882331F1282F80FF09C08091F2
:102040006404909165040196909365048093640400
:1020500021FF09C0809170049091710401969093C2
:102060007104809370048091220485FF0BC00E944C
:10207000110681EC91E00E943D06812F0E94EC0543
:102080000E944B06809155021F910F9108952F9247
:102090003F924F925F926F927F928F929F92AF92F8
:1020A000BF92CF92DF92EF92FF920F931F93DF9335
:1020B000CF93CDB7DEB728970FB6F894DEBF0FBE2B
:1020C000CDBF282E362E4A0128013901CD82DE826D
:1020D000EF82F8860E9411068DE092E00E943D0694
:1020E000822D0E94EC050E94B905832D0E94EC050B
:1020F0000E94B905AA24BB24C501B4017E0108943D
:10210000E11CF11CA70124E004E00E941A04C701AD
:1021100064E00E94BD050E94B905C301B2010E949E
:10212000FA0582E2281631F46D817E818F819885CF
:102130000E94FA050E944B0628960FB6F894DEBF5F
:102140000FBECDBFCF91DF911F910F91FF90EF9008
:10215000DF90CF90BF90AF909F908F907F906F90C7
:102160005F904F903F902F900895CF93DF93EC01B5
:102170008334910519F489E392E005C08434910514
:1021800029F482E392E00E943D0609C080E20E94A9
:10219000B105CE010E94DE0580E20E94B105DF910B
:1021A000CF910895CF93DF93EC018531910519F418
:1021B00087E492E005C08431910529F480E492E03F
:1021C0000E943D0609C080E20E94B105CE010E9436
:1021D000DE0580E20E94B105DF91CF910895EF9274
:1021E000FF920F931F93CF93DF93FC018081880FA1
:1021F000880F8C73EF01C80FD11D81858131B9F42F
:102200008CE292E00E943D06CE010E94150D8C01E9
:10221000CE0102960E94150D7C01C8010E94B510E6
:102220008EE30E94B105C7010E94B51041C08630FF
:1022300009F044C086E292E00E943D06CE010E9471
:10224000150D8C01CE0102960E94150D7C01C8016E
:102250000E94D2108EE30E94B105C7010E94D210E5
:10226000CE010C960E94150D7C018C0111708EE13F
:1022700092E00E943D06C8010E94DE0588E192E0DE
:102280000E943D06CE0104960E94220D0E94D005B8
:10229000E4FE0EC0CE0108960E94220D7B018C0147
:1022A00082E192E00E943D06C801B7010E94D0057C
:1022B0008DE50E94B10580E20E94B105DF91CF91CA
:1022C0001F910F91FF90EF9008951F93CF93DF938D
:1022D000EC0180E692E00E943D069A8180E02B812D
:1022E00030E0822B932B0E94DE051985113019F402
:1022F0008AE592E004C0163029F484E592E00E9459
:102300003D060CC0113119F48EE492E0F8CF8CE256
:102310000E94B105812F90E00E94DE058CE20E94B0
:10232000B105CE010C960E948A0D8EE30E94B10584
:10233000CE0140960E948A0D8DE50E94B10580E293
:102340000E94B105DF91CF911F910895CF93DF9344
:10235000EC0180E792E00E943D06CE0106960E94C5
:10236000150D8130910519F48BE692E005C082309D
:10237000910529F486E692E00E943D0602C00E9483
:10238000DE058CE20E94B10588E20E94B105CE0113
:1023900008960E94270E8CE20E94B105CE010E968F
:1023A0000E948A0D89E20E94B1058EE30E94B10568
:1023B00088E20E94B105CE0142960E94270E8CE26F
:1023C0000E94B105CE0148960E948A0D89E20E94C2
:1023D000B1058DE50E94B10580E20E94B105DF9153
:1023E000CF910895AF92BF92CF92DF92EF92FF927A
:1023F0000F93DF93CF9300D000D0CDB7DEB77C0131
:102400005B018BE50E94B105CC24DD24C601B5013A
:102410006E010894C11CD11CA60124E004E00E94B6
:102420001A04C60164E00E94BD058CE20E94B10559
:10243000C7010C960E94150D0E94DE058CE20E94D9
:10244000B105C70106960E94270E8EE30E94B105D2
:10245000C7010E94270E8DE50E94B10580E20E940F
:10246000B1050F900F900F900F90CF91DF910F91CA
:10247000FF90EF90DF90CF90BF90AF9008950F93B3
:102480001F93CF93DF93EC0180912304882319F0ED
:10249000CE010E94F2118E01025F1F4FCE010C96F9
:1024A0000E94150D28E08630920741F480912504A2
:1024B0008823A9F0C8010E94A61111C0805098403D
:1024C00071F480912404882351F0C8010E946511A1
:1024D00080912604882319F0C8010E94EF10DF9133
:1024E000CF911F910F9108950E94110681EF92E004
:1024F0000E943D0608952F923F924F925F926F92F5
:102500007F928F929F92AF92BF92CF92DF92EF9283
:10251000FF920F931F93DF93CF9300D00F92CDB70D
:10252000DEB7262E40904702509048026090490244
:1025300070904A02CE010196BE016E5F7F4F0E94ED
:102540002E07382E8090470290904802A0904902B2
:10255000B0904A02882309F468C181E0381609F076
:102560003BC1809127048823D1F04A815B8195018A
:1025700084010419150926093709809129049091CD
:102580002A04A0912B04B0912C0473016201C81A93
:10259000D90AEA0AFB0A898161E00E94471080910A
:1025A0002804882379F084189508A608B708CA80FB
:1025B000DB80C301B201A50194010981EE24E394FB
:1025C0000E9449178981813109F02FC1109122049D
:1025D00011708AE293E00E94150D7C01112361F0D5
:1025E0000E94741260914D0270914E028EE193E050
:1025F0000E943F120E944B068FEFE8168FEFF806FD
:10260000C1F584E293E060E374E00E94F40C8091F1
:102610001E0380932E0480911F0380932F040E9439
:1026200074128EEB92E00E943D0680E394E00E94DB
:10263000270E88EB92E00E943D0680912E040E94B6
:10264000EC058EE20E94B10580912F040E94EC05FA
:102650000E944B0680912E04882341F480912F0420
:10266000853021F481E080932D0456C08EE892E0FD
:1026700009C08EEFE8168FEFF80659F40E94741225
:102680008BEC92E00E943D060E944B0610922D04B6
:1026900043C080911F04882309F4C3C080E0E8167A
:1026A00088E0F80609F4BDC086E0E81688E0F80680
:1026B00041F560914D0270914E028CE293E00E94D0
:1026C000500E882329F40E94741286EE92E016C000
:1026D00084E293E064E373E00E945E0D882309F0D6
:1026E000A0C088E091E064E273E00E945E0D882360
:1026F00009F097C00E94741283ED92E00E943D069B
:1027000009C00E94741287E892E00E943D06C7014A
:102710000E94DE050E944B06809172049091730422
:10272000019690937304809372047FC080916A0431
:1027300090916B04019690936B0480936A0480914E
:102740004D0290914E02A0E0B0E020916C043091D7
:102750006D0440916E0450916F04820F931FA41F6B
:10276000B51F80936C0490936D04A0936E04B09396
:102770006F048091220483FF10C00E9411068BEF2A
:1027800092E00E943D0660914D0270914E028EE1F2
:1027900093E00E943F120E944B060E94B70B80916B
:1027A0004D0290914E020E94150A3FC00E941106F0
:1027B0008BEF92E00E943D0686E792E00E943D0684
:1027C0000E944B0680917404909175040196909339
:1027D00075048093740429C084189508A608B70866
:1027E0004A815B818091290490912A04A0912B0455
:1027F000B0912C0473016201C81AD90AEA0AFB0AD3
:102800008981632D950184010E944710CA80DB8075
:10281000C301B201A50194010981E32C0E9449176B
:1028200004C0222009F082CFC1CF0F900F900F90EB
:10283000CF91DF911F910F91FF90EF90DF90CF909C
:10284000BF90AF909F908F907F906F905F904F90D0
:102850003F902F9008958CE391E00E947D080895A9
:102860001092500210924F020E9494090E94120A84
:102870000895CF93DF93EC01E0915702F091580255
:10288000E038F10520F4E256FC4F808102C00E943E
:102890008E098883809157029091580201969093F7
:1028A000580280935702DF91CF910895FC018091E7
:1028B0004F0290915002918380831092580210929F
:1028C00057020E947F0A08950F931F938C010E9464
:1028D000960910934E0200934D021F910F91089597
:1028E000DC0120915702309158022038310558F40C
:1028F000F901E25EFC4F8C9180832F5F3F4F309354
:102900005802209357028C910E94890908951092D1
:1029100058021092570280E090E00E945B0A0895EE
:1029200080915902882319F08130D9F40EC080912A
:102930002D048823B1F00E94110686E193E00E94E5
:102940003D0681E0809359020CC080912D048823BC
:1029500041F40E94110685E093E00E943D0610922A
:102960005902809159020895EF92FF920F931F939D
:10297000CF93DF930E948805882309F4BBC00E948F
:1029800091058A3019F0EFEEF1E0AAC089E593E0F5
:102990000E943D06EE2486E593E00E943D0610E08D
:1029A0000E949105982F8A30C9F08F3711F0883036
:1029B00039F41123A9F31150892F0E94B105F0CFEA
:1029C0008052803668F7E12FF0E0E25CFB4F9083A5
:1029D000892F0E94B1051F5F1F3111F70E944B061E
:1029E000E12FF0E0E25CFB4F10821123A1F290E0B6
:1029F000FF2401C09F5FA92FB0E0A25CBB4F8C9168
:102A00008032C1F38823E9F0EF2DF0E0EE0FFF1FD5
:102A1000EA5CFB4FB183A083F39405C0EE2311F46D
:102A200080E00AC09F5FA92FB0E0FD01E25CFB4F90
:102A3000E081E03299F781E0A25CBB4F1C928823D1
:102A4000C9F6FF2009F4A7CF00913604109137048E
:102A5000CBE8D1E006C0C8010E94EE17009739F01C
:102A600024966881798161157105A9F729C020979D
:102A700039F1EA81FB818F2D66E374E00995E82E38
:102A80000E94EC050E94B9058E2D807F61F482E0E2
:102A9000E81631F48EE493E00E943D0680E02BC0FE
:102AA00089E493E00FC0803119F480E493E00AC018
:102AB000803219F488E393E005C082E393E002C01A
:102AC0008BE293E00E943D0681E0E81609F063CFB7
:102AD00085E293E00E943D060DC0981729F03396D9
:102AE00090819923D1F706C0309721F00180F281BF
:102AF000E02D099581E0DF91CF911F910F91FF901B
:102B0000EF90089581E0089582E008958DE793E0C5
:102B10000E943D0680E0089587E596E00E943D060C
:102B200080E008950E94401780E008950E94921767
:102B300080E008950F931F93DF93CF930F92CDB74B
:102B4000DEB7DB01ED91FC91119720819181243654
:102B500081F59536A9F0963630F49136D9F0943651
:102B600009F068C008C09C36F9F09037C1F099367A
:102B700009F060C00AC09091220402E214E043C050
:102B80009091230403E214E03EC09091240404E2F7
:102B900014E039C09091250405E214E034C090910E
:102BA000260406E214E02FC09091270407E214E007
:102BB0002AC0263601F5943651F0953618F493362E
:102BC000C9F50AC0953669F09037A1F50FC090910C
:102BD000210401E214E017C09091200400E214E007
:102BE00012C090911E040EE114E00DC090911F04DC
:102BF0000FE114E008C02C36E9F49136D9F4909135
:102C0000280408E214E0813029F4F80110829923A5
:102C100079F40DC012968D919C911397BE016F5F50
:102C20007F4F0E947304882329F08981F8018083F3
:102C300080E001C081E10F90CF91DF911F910F9152
:102C400008950E94AA1680E008950E94DB1680E095
:102C500008950E94890880E008950E9496088111D5
:102C6000806208950E94D7088111806208950E94B1
:102C7000090980E008950E94401708950E94921764
:102C800008950E94AA1608950E94DB160895FF92E7
:102C90000F931F930E94B1030E9450060E94520599
:102CA0000E94D1060E947C0985ED96E00E943D06B7
:102CB00089EA96E00E943D060E94D0080E94090918
:102CC0000E944B060E947A0E0E942B140091210450
:102CD000802F0E94E70B182F882329F48AE896E0BA
:102CE0000E943D06FFCF8BE796E00E943D06812FB4
:102CF0000E94EC05002319F48DE696E002C084E7FB
:102D000096E00E943D0686E696E00E943D060E94FF
:102D10004B060E949014F82E00E081E0F81609F4AA
:102D200001E0802F0E94B50F182F602F0E94820EA5
:102D300060E0113009F461E08F2D0E947B120E9447
:102D4000B414882331F71F910F91FF9008950E94CA
:102D50004716FDCF10925F0410925E04109260043B
:102D60001092610410926204109263041092650440
:102D7000109264041092690410926804109267041F
:102D80001092660410926B0410926A0410926C0404
:102D900010926D0410926E0410926F0410927104E0
:102DA00010927004109275041092740410927304BF
:102DB00010927204089581E097E00E943D068DEF25
:102DC00096E00E943D0680915E0490915F040E940F
:102DD000DE050E94B90560916004709161048091E4
:102DE0006204909163040E94D0050E94B90580910D
:102DF0006404909165040E94DE050E94B9058091EB
:102E00006804909169040E94DE050E94B9058091D2
:102E10006604909167040E94DE050E944B0689EFCC
:102E200096E00E943D0680916A0490916B040E9496
:102E3000DE050E94B90560916C0470916D0480916B
:102E40006E0490916F040E94D0050E94B905809194
:102E50007004909171040E94DE050E94B905809172
:102E60007404909175040E94DE050E94B90580915A
:102E70007204909173040E94DE050E944B0608952F
:102E800010921A0310921B0310921D0310921C0340
:102E900008958F929F92AF92BF92CF92DF92EF925E
:102EA0000F934B015C0180911C0390911D030196CF
:102EB00090931D0380931C03A0911A0390911B0310
:102EC000A03179F48CE0989FF0011124E65AFD4F6F
:102ED000892F8F5F80931B03803179F410921B033D
:102EE0000CC08CE0989FF0011124E65AFD4F9F5FC3
:102EF00090931B03AF5FA0931A0380829182A282FA
:102F0000B38224833583468357830087E186D38643
:102F1000C2860F91EF90DF90CF90BF90AF909F90BF
:102F20008F900895EF92FF920F931F93CF93DF93AB
:102F30008EEF91E00E94300680911C0390911D035A
:102F40000E94DE050E944B0680911B03C82FD0E033
:102F5000EE24FF2433C0209709F4EC0121978E0161
:102F6000000F111F0C0F1D1F000F111F000F111F4D
:102F7000065A1D4FF80160817181828193810E9400
:102F8000FA05F80164817581868197810E94FA05AE
:102F9000F80180850E94EC050E94B905F801818541
:102FA0000E94EC050E94B905F801828593850E9474
:102FB000DE050E944B060894E11CF11C80911A0367
:102FC00090E0E816F9063CF2DF91CF911F910F9146
:102FD000FF90EF900895F8940C945818FB01DC01D1
:102FE0008D91019080190110D9F3990B0895DC019E
:102FF000CB01FC01F999FECF06C0F2BDE1BDF89A04
:10300000319600B40D9241505040B8F70895A8E1B0
:10301000B0E042E050E00C94F917DC01CB0103C0B2
:103020002D910E94181841505040D0F70895262F36
:10303000F999FECF1FBA92BD81BD20BD0FB6F8949D
:10304000FA9AF99A0FBE019608950E941718272F31
:103050000C941818991B79E004C0991F961708F072
:10306000961B881F7A95C9F780950895A1E21A2EBC
:10307000AA1BBB1BFD010DC0AA1FBB1FEE1FFF1F1C
:10308000A217B307E407F50720F0A21BB30BE40B6C
:10309000F50B661F771F881F991F1A9469F76095B3
:1030A0007095809590959B01AC01BD01CF0108956D
:0430B000F894FFCFC2
:1030B4008813FFFFFFFFFFFF000000000000000077
:1030C4000000FFFFFFFF3030302E3030302E303024
:1030D400302E30303000160130303A30303A303053
:1030E4003A30303A30303A303000280187147014C6
:1030F4006414561439143014710072007600700090
:10310400707300706C0070720073640073720066F8
:10311400640066630066700066650064640064654C
:1031240000646900646100647000646C0064790088
:103134006C61006C64006C72003F00480182154AA7
:103144000184154C018C154E01371650013216536B
:10315400012D1656012916590125165C0121165F09
:10316400019A1562019A1565019A1568019A156B01
:10317400019A156E019A1571019A1574019A1577C1
:10318400019A157A019A157D019A1580019A158381
:1031940001961586019215890186150000000073B9
:1031A40044165341166C3E164C3B160000006C6FDF
:1031B400673A2074732C2064656C74612C20636DF1
:1031C400642C20726573756C742C2073697A652085
:0431D40020230000B4
:00000001FF
